:020000040800F2
:10000000A007002095010008990100089B01000845
:100010009D0100089F010008A101000800000000E8
:10002000000000000000000000000000A301000824
:10003000A501000800000000A7010008A9010008B0
:10004000AB010008AB010008AB010008AB010008E0
:10005000AB010008AB010008AB010008AB010008D0
:10006000AB010008AB010008AB010008AB010008C0
:10007000AB010008AB010008AB010008AB010008B0
:10008000AB010008AB010008AB010008AB010008A0
:10009000AB010008AB010008AB010008AB01000890
:1000A000AB0100087D130008AB010008AB0100089C
:1000B000590D0008410D0008AB010008AB01000814
:1000C000AB010008AB010008AB010008AB01000860
:1000D000AB010008B30600087D0E0008AB01000864
:1000E000AB010008AB010008AB01000800F002F80A
:1000F00000F03AF80AA090E8000C82448344AAF188
:100100000107DA4501D100F02FF8AFF2090EBAE885
:100110000F0013F0010F18BFFB1A43F0010318473B
:100120008C1F0000AC1F0000103A24BF78C878C1B3
:10013000FAD8520724BF30C830C144BF04680C60ED
:10014000704700000023002400250026103A28BF35
:1001500078C1FBD8520728BF30C148BF0B60704739
:100160001FB51FBD10B510BD01F0CCF91146FFF74A
:10017000F7FF00F02BF801F0EAF903B4FFF7F2FF04
:1001800003BC00F009FA000030BF72B662B680F31B
:100190000888704708480047FEE7FEE7FEE7FEE7ED
:1001A000FEE7FEE7FEE7FEE7FEE7FEE70348044959
:1001B000044A054B70470000ED000008A001002034
:1001C000A0070020A0030020A0030020092000F0C9
:1001D0008AF9482000F02AF8002000F06FF900F0BA
:1001E000B1FA00F0E9FA00F0B9FC00F014FD4FF4A8
:1001F000967000F053F84FF41651482000F0EEF9D5
:10020000002141F61F4000F0C9FB4FF4E1312420EA
:1002100000F0C1FD41F61F41312000F091FB04E0E8
:10022000642000F03BF800F07CFEF9E74FF0E0219D
:10023000096921F004014FF0E0221161C21700EBBF
:100240005272C2F3C702234B1A701946097801EBA8
:100250004102C2EBC1114FF6FF7202EAC1011E4A10
:100260001180704701461B4A12784A434FF0E02341
:100270005A6100229A6101221A6100BF4FF0E02208
:10028000106900F001021AB100F48032002AF5D0A2
:1002900000224FF0E0231A619A61704701460E4A2E
:1002A00012884A434FF0E0235A6100229A610122EA
:1002B0001A6100BF4FF0E022106900F001021AB18C
:1002C00000F48032002AF5D000224FF0E0231A61BA
:1002D0009A6170474E00002050000020A34A0A4057
:1002E0000243A34B1A6070470146072323EA010229
:1002F00012029F4B1B1D18684FF6FF0318409D4BC1
:10030000184310439A4B1B1D186070472DE9F041AC
:100310000746884614461D462846FFF7E5FFC5F107
:10032000040007FA00F60F20284100EA08000643FF
:1003300006F00F06E21704EBD2625211920002F1AE
:10034000E022D2F800212146E31704EBD3635B11CE
:10035000A4EB431C012303FA0CF31A432046E317D2
:1003600004EBD3635B119B0003F1E023C3F800218E
:100370008148005D40EA06107F490855BDE8F081DC
:1003800070B504460B46CE1701EB9676C6F3870090
:10039000CE1701EB9676B610A1EB8606B606350EA3
:1003A000764B9B6943F00103744EB3614FEAB63359
:1003B00053F820300F26AE40B343714E46F820303C
:1003C000334653F8203004FA05F61E436C4B43F8CD
:1003D00020606C4B1B6801268E403343694E3360AE
:1003E00002F0010343B1674B0C331B6801268E40BA
:1003F0003343644E0C36336002F0020343B1614B69
:1004000008331E6801238B401E435E4B08331E6079
:1004100070BD00B5002059490861C86014204861CA
:1004200000208861C8610846006840F0010008604B
:1004300008464068544908405049486008460068EA
:10044000524908404D4908600846006820F4802061
:1004500008600846406820F4FE004860002088607C
:1004600000214FF00060FFF739FF00BD10B5404894
:100470000830006840F004003D49083108603F48FA
:10048000C06940F080503D49C8614148406840F42F
:1004900080703F4948600846006840F004000860EA
:1004A0000846006840F002000860FFF76DFE10BDCE
:1004B0003048001D2E49091D086070470146490655
:1004C0002E4A926942F001022C4B9A612C4A083A5A
:1004D000526822F0E0622A4B083B5A601A46526882
:1004E0000A435A60704730B504460025FFF791FF74
:1004F0002248006840F480302049086000BF1F484F
:100500000068400C0028FAD04FF480601B49486016
:10051000A01EC4B20846406840EA844048600846CD
:10052000406840F4803048601A48006840F032006B
:10053000184908601148006840F080700F49086051
:1005400000BF0E480068400E0028FAD00B484068F3
:1005500040F002000949486005E008484068C0F3DF
:10056000870505F00305022DF7D130BD80FFFF1F81
:1005700008ED00E00000FA0500E400E00010024091
:1005800008000140000401400000FFF8FFFFF6FEF4
:100590000070004000200240014600BF704700BFCD
:1005A0005F4A128802F04002002AF9D0C2B25C4BC6
:1005B0001B1D1A80704710B5024600200BE0135C2B
:1005C000574C241D238000BF554B1B8803F040036C
:1005D000002BF9D0401C8842F1DB10BD2DE9F05F03
:1005E00005460E46300101F001FC81464D4905FBF0
:1005F00001F001F0FBFB8246494601F0E1FA0746B3
:10060000384601F0BBFB84B2204601F0EFFB834685
:10061000394601F0CBFC82464FF0834101F0FAFBF2
:10062000814601F0ABFB80464FF6FF7000EA0414F0
:1006300004EB080084B23C48806940F004003A4969
:1006400088610846806940F48040886137480068C6
:1006500020F47F60354908600846006840F40B606C
:1006600008603148C06840F480402F49C86008469F
:10067000C06820F48040C860294808300480001D0C
:10068000008842F20C01084325490C3108800846D5
:10069000008840F4807008800846008840F0200000
:1006A00008800223252201210020FFF72FFEBDE84C
:1006B000F09F1B48008800F0200078B31849091DFE
:1006C0000988C8B21A49097869B91A490978FE290E
:1006D00009D119490978FF2905D10121144A11705E
:1006E0000021164A11701249097801290FD11449C5
:1006F000124A1278885411490978491C0F4A11701E
:1007000011460978042902D10021094A11700949CA
:100710000978094A11700749087000BF0020704726
:100720000038014040420F00001002400408014020
:1007300044000020590000205A00002058000020EA
:100740003C0000201748806940F00400154988618A
:100750001548006820F47F201349086008460068A7
:1007600040F44C30086010480C30006840F0100035
:100770000D490C310860704718B900210B4A11600F
:100780000FE00B490968491C094A1160814208D1F0
:1007900006490968C943074AC2F890110021044A72
:1007A0001160704700100240000801409001214292
:1007B0005C000020000021425648806940F004009F
:1007C000544988615448006820F470005249086018
:1007D0000846006840F4000008604F480C3000688C
:1007E00040F020004C490C310860704701464B48EE
:1007F000006828B94A480088401C494A108002E035
:100800000020474A10804548006828B945480078CC
:1008100010B90120434A107043480078B0B94148EC
:100820000078012807D141480078401C3F4A1070E9
:1008300001203D4A10703D480078022806D1002072
:100840003A4A10703A4A10800220704733480068D4
:10085000012804D10020334A1070334A1070334805
:10086000007801281CD132480088401C304A108092
:100870001046008888420ADD29480088884206DA46
:1008800000202A4A10702A4A10800120DDE72448FF
:100890000088884204DD0020244A1070244A108019
:1008A0000020D2E72348007838B11C48006820B9FE
:1008B000002020490870012070471848006801286E
:1008C00001D11C4908700020F6E71B48008840B998
:1008D0001248006828B919480088401C1749088048
:1008E00002E000201549088014480088C82807DD68
:1008F000012011490880002010490880012070471C
:100900000D480088012802D100200B4908800020F2
:10091000F5E70000001002400008014014012142E8
:1009200066000020600000206100002062000020BE
:1009300064000020680000206C0000206A00002095
:1009400070B505460C461348806940F400601149B3
:10095000886111480580001F04800F4820380088F6
:1009600040F001000C49203908800846008840F01A
:100970004000088008482C38008840F001000649F3
:100980002C3908800223192203210120FFF7BEFC25
:1009900070BD0000001002402C2C01406A4AD26950
:1009A00042F00402684BDA611A46926942F008028A
:1009B0009A61664A126822F07F42644B1A601A46B6
:1009C000126842F03B421A601A1D126822F0FF02C0
:1009D0001B1D1A601A46126842F0BB021A605C4A7C
:1009E0001080121F11805A4A143A128842F0600295
:1009F000574B143B1A801A46128842F4C0421A80A0
:100A00001A1D128842F060021B1D1A801A461288B5
:100A100042F4C0421A801A1F128842F008021B1FBB
:100A20001A801A46128842F400621A801A1D12882F
:100A300042F008021B1D1A801A46128842F4006216
:100A40001A801A1D128842F001021B1D1A801A46D4
:100A5000128842F010021A801A46128842F48072FC
:100A60001A801A46128842F480521A808022384B2B
:100A70002C3B1A801A46128842F001021A807047F5
:100A8000314A926942F400622F4B9A611A46926988
:100A900042F004029A612F4A126822F00F022D4B95
:100AA0001A601A46126842F00B021A601A4612685F
:100AB00022F470421A601A46126842F430421A60F8
:100AC000254A1080121F1180234A143A128842F0DE
:100AD0006002214B143B1A801A46128842F0080229
:100AE0001A801D4A0C3A128842F001021A4B0C3B44
:100AF0001A801A1F128842F4C0421B1F1A801A461D
:100B0000128842F400621A801A1D128842F4805240
:100B10001B1D1A80104A1832128842F400420E4BF4
:100B200018331A8080220C4B2C3B1A801A461288EC
:100B300042F001021A800022074B08331A80064B4C
:100B400014331A807047000000100240000C01406E
:100B50002C080040040801402C2C014010B58448AA
:100B6000C06940F001008249C8610846806940F0D0
:100B7000040088617F48006820F0FF007D4908601C
:100B80000846006840F044000860C804808940F0CE
:100B90000100C90488810846808940F040008881AE
:100BA00001231C2203211846FFF7B0FB00204FF061
:100BB000804108854FF6FF7088850846008820F43C
:100BC000407008800846008820F0600008800846D1
:100BD000008B40F0010008830846008B40F48070D1
:100BE00008830846008C20F0020008840846008C28
:100BF00020F0200008840846008B40F03000088375
:100C00000846008940F0030008810846008840F04B
:100C10000100088010BD10B55548C06940F00200C1
:100C20005349C8610846806940F004008861514812
:100C3000006820F07F404F4908600846006840F097
:100C4000884008604C48008840F001004A4908800C
:100C50000846008840F04000088001231D2203213F
:100C60001846FFF753FB002043491C3108804FF61C
:100C7000FF70091D088040480C38008820F440703F
:100C80003D490C3908800846008820F06000088043
:100C900039480C30008840F0010037490C31088099
:100CA0000846008840F4807008803348143000887B
:100CB00020F002003049143108800846008820F0F6
:100CC000200008802C480C30008840F030002A4971
:100CD0000C3108802848001F008840F00300264996
:100CE000091F088024480C38008840F00100224980
:100CF0000C39088010BD0146022904D003290BD00D
:100D0000042919D111E04FF08042928C10B20022D8
:100D10004FF080439A8411E0174A1832128810B2BB
:100D20000022154B18331A8008E0144A128810B2BA
:100D30000022124B1A8001E0002000BF00BF704764
:100D40000D48001D00880C48001D008820F001009F
:100D50000949091D088070474FF08040008A4FF014
:100D60008040008A20F001004FF0804108827047E7
:100D700000100240000801400C040040240800401C
:100D8000F249088000BFF149091F098801F04001BC
:100D90000029F8D070472DE9F05F05460E46300176
:100DA00001F024F88146EA4905FB01F001F01EF844
:100DB0008246494600F004FF0746384600F0DEFF51
:100DC00084B2204601F012F88346394601F0EEF86D
:100DD00082464FF0834101F01DF8814600F0CEFFBE
:100DE00080464FF6FF7000EA041404EB080084B25A
:100DF000D848806940F00400D64988610846C06937
:100E000040F40030C861D448006820F47F40D249E3
:100E100008600846006840F40B400860CE480C307B
:100E2000006840F48060CC490C310860C948006912
:100E300040F48020C74908610846006920F48020FA
:100E40000861C248001D0480001D008842F20C01A8
:100E50000843BE49083108800846008840F4807085
:100E600008800846008840F02000088002232622DF
:100E700001210020FFF74AFABDE8F09FB348001FA8
:100E8000008800F0200070B3B0490988C8B2B349A7
:100E9000097869B9B2490978FE2909D1B1490978B7
:100EA000FF2905D10121AD4A11700021AE4A117010
:100EB000AA49097801290FD1AC49AB4A1278885464
:100EC000A9490978491CA84A1170114609780429D2
:100ED00002D10021A14A1170A1490978A14A1170DB
:100EE0009F49087000BF0020704730B502460B468E
:100EF000002010E012F8014B6040002109E000F0F2
:100F000001041CB18C2484EA600000E040104C1CF9
:100F1000E1B20829F3DB1C00A3F10105ABB2E9D172
:100F200030BD2DE9FF5F92480068404200F0A4FC0C
:100F30008046904A904B00F0B7FC06468F4A904B93
:100F400000F0B2FC044600228E4B00F03DFB8246CE
:100F500000F008FB01908C48006800F08DFC804692
:100F6000844A854B00F0A0FC0646844A844B00F07E
:100F70009BFC04460022834B00F026FB824600F0D7
:100F8000F1FA0090019800F08DFD06467F4A804BF3
:100F900000F01AFB044600F0E5FA0390009800F018
:100FA00081FD0646794A7A4B00F00EFB044600F0BC
:100FB000D9FA029077490398086002984860084679
:100FC0000078754908707348407848707148807897
:100FD00088707048C078C8706E48007908716D4894
:100FE000407948716B48807988716A48C079C871C6
:100FF00008216948FFF779FF6749087209216648A7
:10100000FFF7D9FA0921644800F051FA614800213C
:1010100001604160BDE8FF9F2DE9C041014600200D
:101020000026002791F800C0BCF1FF0F39D191F8DC
:1010300001C0BCF1FF0F34D191F802C091F80380D8
:101040008CEA080C91F804808CEA080C91F8058071
:101050008CEA080C91F806808CEA080C91F807805D
:101060008CEA080C91F808808CEA080C91F8098049
:101070008CEA080C91F80A808CEA080C91F80B8035
:101080008CEA080C91F80C808CEA080C91F80D8021
:101090008CEA080C4FFA8CF691F80EC04FFA8CF7D8
:1010A00003E04FF0FF30BDE8C081B74202D04FF0FF
:1010B000FF30F8E7DFF8E4C04FF00008CCF800801C
:1010C000CCF80480CCF8088091F802C0DFF8CC801E
:1010D00088F800C091F803C088F801C091F804C0F6
:1010E00088F802C091F805C088F803C091F806C0DE
:1010F00088F804C091F80780DFF8A0C08CF805805C
:1011000091F808808CF8068091F809808CF80780A7
:1011100091F80AC0DFF8848088F808C091F80B8045
:10112000DFF878C08CF8098091F80C808CF80A8080
:1011300091F80D808CF80B804FEA026C4CEA044C5D
:101140004CEA032C4CEA050000BFACE70444004025
:1011500040420F00001002400008014044000020FF
:10116000790000207A000020780000203C00002058
:1011700004000020A7E8482EFF210940A4703D0A82
:10118000D7A3A03F00608840080000207B14AE4732
:10119000E17A843F70000020A80000203401002084
:1011A000002808DA4FF4E152AA4B1A8000F5E15208
:1011B0001B1D1A8008E04FF4E152A64B1B1D1A803C
:1011C000C0F5E1521B1F1A80002909DA4FF4E152E1
:1011D000A04B08331A8001F5E1521B1D1A8008E06C
:1011E0004FF4E1529B4B0C331A80C1F5E1521B1FA7
:1011F0001A80704741F6F4209749096842429142AB
:1012000002DA4142944A116093490968814201DD42
:1012100091490860914909684242914202DA41428B
:101220008E4A11608D490968814201DD8B49086051
:1012300070472DE9F05F04460D46281B8849086079
:101240000846006800F0BAFD8346864801685846A3
:1012500000F0E0FD804682490968834A1268881AD6
:1012600000F0ACFD834681480168584600F0D2FD8D
:101270008146414600F042FC07467D48006800F088
:101280009DFD8246394600F039FC064600F05AFDC5
:1012900077490860724800687349086074480068BC
:1012A000BDE8F09F2DE9F05F04460D46281B71490B
:1012B00008600846006800F081FD834669480168BF
:1012C000584600F0A7FD80466A4909686A4A1268D4
:1012D000881A00F073FD834664480168584600F0A0
:1012E00099FD8146414600F009FC074663480068C5
:1012F00000F064FD8246394600F000FC064600F02E
:1013000021FD5E4908605B4800685B4908605B48F6
:101310000068BDE8F09F10B53220FFF767FA044679
:10132000012C07D15648007808B9012000E00020C0
:1013300053490870022C07D15248007808B901209F
:1013400000E000204F49087010BD4F4A52780AB1A2
:10135000012001E04FF0FF304B4AD2780AB1012161
:1013600001E04FF0FF31484A12784243474B1A6080
:10137000454A92784A43464B1A60704710B5454833
:10138000008800F00100002850D04248008820F07A
:101390000100404908804048007808B9012000E079
:1013A00000203D4908700846007801280AD13B48D2
:1013B000007818B934483A4909680160FFF7C5FF59
:1013C000FFF7A9FF3448007810BB0220FFF793FC19
:1013D000344908600320FFF78EFC40423249086020
:1013E0002A4801682F480068FFF75CFF1A49086027
:1013F000274801682C480068FFF71BFF1749086061
:10140000FFF7F8FE1548016813480068FFF7C8FEAB
:101410001C48007818B96420FFF7AEF906E01948B7
:101420000078012802D10020FFF7A6F910BD01467F
:10143000B1F5397F03DB124A1278012A01D101206C
:1014400000E0002070470146002901DA484200E030
:101450000846704734080040200000202400002087
:101460009C00002038000020A40000203400002050
:10147000A000002090000020980000209400002090
:101480000200002001000020400000202800002071
:101490002C000020102C01407C0000204400002083
:1014A0003C000020040000200800002070474FF09E
:1014B000000200B5134694469646203922BFA0E8A4
:1014C0000C50A0E80C50B1F12001BFF4F7AF0907B0
:1014D00028BFA0E80C5048BF0CC05DF804EB8900A1
:1014E00028BF40F8042B08BF704748BF20F8022BE4
:1014F00011F0804F18BF00F8012B704770477047FC
:1015000070477047754600F029F8AE4605006946F9
:10151000534620F00700854618B020B5FEF746FE7A
:10152000BDE820404FF000064FF000074FF00008E4
:101530004FF0000B21F00701AC46ACE8C009ACE865
:10154000C009ACE8C009ACE8C0098D467047044644
:10155000AFF300802046FEF710FE00000048704701
:101560004001002021F00042A2F16052B2F5801F3C
:1015700001F0004328BFD2F17F6C0BD95FEA001C59
:1015800043EAC20242EB507018BF704728BF20F0F8
:1015900001007047B2F5801FBCBF184670474FEA84
:1015A000410C1CF5001F02D2084600F0FABC70B5D1
:1015B00000F024FA00000089FFF7F6BF4FF000406A
:1015C000A0F58000704700002DE9C04130B4DFF87D
:1015D000A0C23CEA111418BF3CEA131400F0EC80DE
:1015E00081EA03051CEA111444EAD57418BF1CEA09
:1015F000131500F0C780A4EB05044FF0004545EA41
:10160000C12145EAC32341EA505143EA525304F150
:101610007F74994204F500344FEAC0204FEAC22299
:1016200008BF904200F09C804FEA13650FF240160D
:10163000765D4FEA134506FB05F7C7F1807706FB99
:1016400007F74FEAD737A7FB03687642C8F580381B
:10165000A7FB06CE38BFA8F1010807FB08E64FF04C
:10166000000EA6FB028CE6FB03CEDCF1000CCEF1F3
:10167000004E38BFAEF1010EA6FB0C584FF000072C
:101680004FF00005E6FB0E87A1FB08C6A0FB07CEC6
:1016900016EB0E0645F10005E1FB076515F1E04E7E
:1016A0007EBFA4F580345FEA46066D4116F18007DF
:1016B00045F100054FEA17274FEA066647EA056736
:1016C000A6F1DE46B6F1805F4FEA15251FD93846F0
:1016D00024F0010C05EBC471BCF1FE6F01EB0C11A1
:1016E00002D8F0BCBDE8008124425CBF01F5801E39
:1016F0009EEAC47F02D4F0BCBDE80081244238D405
:10170000F0BCA1F1C041BDE8004100F0C5B94FEA0D
:10171000D22242EA43524FEAD323A7FB02864FEA82
:10172000D02040EA415007FB03661EEA0E0F4FEA45
:10173000D12105FB026658BFA6EB0056B6EB00565A
:101740004FEA520E4EEAC37E18EB0E0E56EB530EC6
:10175000BDD518EB02085E417F1C55F10005B6E7C8
:101760004FF480154FF000074FF000064FF00008CF
:10177000ADE7F0BC4FF0000001F1C04101F00041C5
:10178000BDE8008111EA0C1F0CEA131500D00CE033
:1017900013EA0C1F00F025804FF00000F0BC81EA36
:1017A000030101F00041BDE80081F0BC81EA0301C2
:1017B000BDE8004100F070B9F0BCBDE8004170B573
:1017C00000F01CF9097EFC3E00F007B881EA030135
:1017D0004FF0000001F00041704781EA030100F082
:1017E0005BB9F0BC4FF000002249BDE800417047F2
:1017F000FFFDFBF9F7F5F4F2F0EEEDEBE9E8E6E4D6
:10180000E3E1E0DEDDDBDAD8D7D5D4D3D1D0CFCD5C
:10181000CCCBCAC8C7C6C5C4C2C1C0BFBEBDBCBB95
:10182000BAB9B8B7B6B5B4B3B2B1B0AFAEADACAB90
:10183000AAA9A8A8A7A6A5A4A3A3A2A1A09F9F9E6A
:101840009D9C9C9B9A99999897979695959493931C
:10185000929191908F8F8E8E8D8C8C8B8B8A8989B3
:101860008888878786858584848383828281818036
:101870000000FF070000F87F10F0004248BF404220
:10188000B0FA80F310FA03F10AD0C3F11D0303F597
:1018900080634FEA415002EB035202EBD1217047C3
:1018A0004FF0000070470000DFF848C170B51CEA37
:1018B000111E1EBF1CEA13159EEA0C0F95EA0C0FB1
:1018C00000F06F8081EA030423EA4C134EEAD47ED1
:1018D00021EA4C1141F4801143F48013AE44A1FB82
:1018E000024CA0FB0365AEF17F7E361955EB0C056B
:1018F000A1FB034C4CF10003A0FB021C16EB0C06F1
:10190000654153F10003094218BF46F0010613F484
:10191000007F0BD14FEA03314FEA0530340341EA2F
:10192000155140EA16506FF003020AE04FEAC32156
:101930004FEAC520F40241EA555140EA56506FF093
:10194000020202EB2E4201EB025585EACE710AD06B
:101950005FEA440C18BF24F0004450F1000041F14C
:10196000000120EAD47040F2FE7C624500D270BDD6
:10197000A84214BF4FF080444FF04044002E08BFEF
:101980000024BEF1806FA8BFA1F1C041BDE8704046
:1019900080F282804FF0000001F1C04101F000416F
:1019A00070479EEA0C0F0CEA131518BF95EA0C0F4E
:1019B00006D04FF0000081EA030E0EF0004170BD2A
:1019C00000F01CF88900013E00F007B800F009B8EB
:1019D0004FEA430C5FEA5C5C08D081EA030100F047
:1019E0005BB84FEA410C5FEA5C5CF6D14FF0000057
:1019F000014970470000FF070000F87F0EF1020E5A
:101A00002EF0030E5EF8046B364205D4012A43EB38
:101A1000030515F5001F12D8012841EB010C1CF538
:101A2000001F0CD80ED14FEAD17C15F5001F0CEB2E
:101A30004C0C0CF1020C08BF4CEBD37C04E04FF0D3
:101A4000080C01E04FEAD37C0CEB4C0526FA05F6B6
:101A500006F00706B6F1040C06D20EEB860CBDE8C4
:101A600070404CF0010C6047DFE80CF0090B0202FB
:101A70004FF000414FF00000A1F5002170BD194664
:101A80001046012851EB010418BFD4F5001484BF9F
:101A9000002001F0004170BD0808A0F500114FEAD8
:101AA0003101704743004FEAD30C4FEA3C0C4340EE
:101AB0001FBF40070CF1605113F0FE4F70471CF040
:101AC000006F03D100200CF0004170470CF0004380
:101AD00043EA507010B540EACC0000F01CFA00BF99
:101AE000000000924FEA0001FFF7D6BF4FF000411F
:101AF0004FF00000A1F500217047000090EA010FAF
:101B000048BF81F0004100F16282421A3CBF801A56
:101B100089184FEAD0524FF07F4C1CEA410FA2EBDC
:101B2000D15318BF9CEA026F00F03B804FF0004C8D
:101B30004CEA00204CEA012121FA03FC10EB0C0CCA
:101B40001ED202F1FF325FEA1C2040EBC25038BFC8
:101B500070471CF07F0F4FEA400C18BFBCF17F4F5D
:101B600038BF7047C3F12003994008BF20F001003F
:101B7000BCF17F4F38BF7047A0F1C04000F011BAF0
:101B80004FEA3C00000A40EBC25028BF1CF0FF0F98
:101B90004FEA400CE6D018BFBCF17F4F38BF70470A
:101BA000EAE79CEA026F05D010EA5C0F08BF00F07C
:101BB0000040704710B500F0AEF900BF64FBBE3EB8
:101BC0004FF47F0C1CEAD0121EBF1CEAD11392EA1C
:101BD0000C0F93EA0C0F00F0858090EA010F48BFCC
:101BE00042F4807240F4000C41F400002CF07F417C
:101BF00020F07F4000B58142A2EB03020FF2081CE7
:101C0000ACEB504EC0F100009EF800E04FEA4E0EE3
:101C100000FB0EFC38BF49004FEA2C1C02F5FA020B
:101C20000CFB0EF34FEACE1E4FEA112C4FEAC121F6
:101C30000EEB635E42EB22420EFB0CFC4FEA1C53A0
:101C400000FB03114FEA112C4FEA01310EFB0CFC93
:101C50004FEADC4C00FB0C11C14228BF09184CEBC9
:101C600003335DF804EB10EB410143EBC250B2F5D6
:101C70007C0F38BF704729D512F0F00F1CBF00F160
:101C8000C04000F0004070470081828384858687D1
:101C900088898B8C8D8E8F919293959697999A9C2B
:101CA0009D9FA0A2A3A5A7A8AAACAEB0B2B3B5B79A
:101CB000B9BCBEC0C2C5C7C9CCCED1D4D7D9DCDF70
:101CC000E2E6E9ECF0F3F7FAFE0000004FEA400C20
:101CD0000CF1807CBCF17E4F28BF7047B0F1C04052
:101CE00000F05FB990EA010F0CEAD11348BF42F44B
:101CF0008072624538BF634507D213F47F0F16D058
:101D000080EA010000F00040704710B500F003F9D0
:101D1000097EFC3E00F005B880EA010000F00040BA
:101D2000704780EA010000F0004000F03AB912F478
:101D30007F0F04BF0248704780EA010000F031B90C
:101D40000000C07F41000B0ED3F19E0208D950F471
:101D500000034FEA032323FA02F048BF40427047D2
:101D600010B500F0D8F800BF4992248000207047D9
:101D70006FF0004282EA200070470000C10DD1F1EF
:101D80009E0206DB4FEA002343F0004323FA02F0F1
:101D90007047004207D54FEA4001B1F1FE4F02D231
:101DA0004FF00000704710B500F0B5F8499224805C
:101DB000002070476FEA20007047000010F00041DB
:101DC00048BF4042B0FA80F310FA03F2C3F19D031A
:101DD0000BD051EAC35101EB1220530638BF7047B4
:101DE00000F1010008BF20F001007047B0FA80F355
:101DF00010FA03F2C3F19D030AD0D90501EB1220BA
:101E0000530638BF704700F1010008BF20F0010001
:101E1000704700004FF47F0C1CEAD0121EBF1CEA72
:101E2000D11392EA0C0F93EA0C0F00F0478090EA6E
:101E3000010F48BF42F480724FF0004C4CEA002082
:101E40004CEA012102EB0302A0FB0113A2F5000200
:101E5000002918BF43F001035B0028BF4FEA33039A
:101E600042EB22425FEA132C4CEBC2502EBFBCEB7C
:101E7000436FB2F57C0F70474FEA036CBCF1004F23
:101E800008BF20F00100B2F57C0F38BF70470BD5BA
:101E900082F0FF0212F5803FC8BF704700F1C040DA
:101EA000D8BF00F00040704700F5000C5FEA4C0C12
:101EB00048BF7047B0F1C04000F073B890EA010F1E
:101EC0000CEAD11348BF42F48072624538BF6345C3
:101ED00004D280EA010000F00040704710B500F025
:101EE0001AF800BF8900013E00F007B800F009B8F9
:101EF0005FEA410C5FEA1C6C08D080EA010000F048
:101F000050B85FEA400C5FEA1C6CF6D14FF000401D
:101F1000A0F5800070470EF1020E2EF0030E5EF861
:101F2000044B244204D44FEA4102B2F17F4F11D84E
:101F30004FEA4003B3F17F4F0CD80ED14FEAD07C6B
:101F4000B2F17F4F0CEB4C0C0CF1020C08BF4CEBC8
:101F5000D17C04E04FF0080C01E04FEAD17C0CEB9F
:101F60004C0324FA03F404F00704B4F1040C06D281
:101F70000EEB840CBDE810404CF0010C6047DFE82C
:101F80000CF0070802024FF00040A0F5800010BDE1
:101F90000846420018BFD2F1807288BF00F00040AE
:101FA00010BDFF2141EAD050C005704780F00040CD
:101FB00090EA010F7FF5A9AD81F0004100F007B86C
:101FC00090EA010F48BF81F000413FF59EAD421AF3
:101FD00004D882F00042A0EB020011444FEAD05234
:101FE0004FF07F4C1CEA410FA2EBD15318BF9CEA83
:101FF000026F4AD04FF0004C4CEA00204CEA01211D
:1020000021FA03FCB0EB0C0C0FD412F0FE0F36D00B
:102010005FEA4C001DD5001240EBC25038BF70473C
:102020001CF03F0F18BF70470BE0A2F101025FEAFE
:102030001C2040EBC25038BF70471CF07F0F18BF08
:102040007047C3F12003994014BF401E20F00100E7
:10205000704780084FEA122308BF7047B0FA80FC2F
:10206000A2EB0C02CCF1280C60FA0CF093EA122FD0
:1020700004BF00EBC25070474FEAC3707047130AA9
:102080005FEADC1008BF7047F6E79CEA026F04D0F5
:1020900010EA5C0F08BF0020704710B5FFF73BFF48
:1020A00040DFF63E81F0004070470000CC20000881
:1020B00000000020A800000028010008742100088A
:1020C000A8000020F80600004401000800000100FC
:1020D0000000000000000000000000000000000000
:1020E00000000000000000000000000000000000F0
:1020F00000000000000000000000000000000000E0
:10210000000078420000784200000000000000005B
:1021100000010000000000000000000000000000BE
:1021200000000000000000000000000000000000AF
:10213000000000000100000000000000000000009E
:10214000000000000000000000000000000000008F
:10215000000000000000000000000000000000007F
:10216000000000000000000000000000000000006F
:04217000000000006B
:04000005080000ED02
:00000001FF
